:020000040800F2
:100000000028002071170008211600082716000894
:100010002D160008331600083916000800000000ED
:100020000000000000000000000000003F16000873
:100030004B16000800000000571600086316000861
:10004000B9170008B9170008B9170008B917000850
:10005000B9170008B9170008B9170008B917000840
:10006000B9170008B9170008B9170008B917000830
:10007000B9170008B9170008B9170008B917000820
:10008000B9170008B9170008B9170008B917000810
:10009000B9170008B9170008B9170008B917000800
:1000A000B9170008B9170008B9170008B9170008F0
:1000B00071160008B917000800000000B917000801
:1000C000B91700080000000000000000B917000880
:1000D00000000000B9170008B91700080000000070
:1000E000B9170008B9170008B91700080000000088
:1000F0000000000000000000000000000000000000
:0C01000000000000000000005FF808F1A3
:10010C0010B5054C237833B9044B13B10448AFF345
:10011C0000800123237010BD280000200000000087
:10012C00FC2D000808B5034B1BB103490348AFF382
:10013C00008008BD000000002C000020FC2D0008F1
:10014C0080B582B000AF0023FB7140E0FB79244AFC
:10015C00D35C012B02D0022B27D035E0FB7918465B
:10016C0000F01CFE0346002B2BD0FB791C4A02210D
:10017C00D154FB79002B0CBF01230023DBB21A46B0
:10018C00184B1A70FB79012B0CBF01230023DBB237
:10019C001A46154B1A70FB79022B0CBF0123002356
:1001AC00DBB21A46114B1A700BE0FB79184600F0C3
:1001BC00F5FD0346002B06D1FB79094A0121D154E8
:1001CC0002E000BF00E000BFFB790133FB71FB795B
:1001DC00022BBBD900BF00BF0837BD4680BD00BF96
:1001EC0000000020490000204A0000204B000020A5
:1001FC0080B582B000AF0346FB71FB7903F020039E
:10020C00DBB21A4610211B4801F0D3FDFB7903F039
:10021C001003DBB21A462021164801F0CAFDFB7907
:10022C0003F00803DBB21A464021124801F0C1FD6D
:10023C00FB7903F00403DBB21A4680210D4801F070
:10024C00B8FDFB7903F00203DBB21A464FF4807160
:10025C00084801F0AEFDFB7903F00103DBB21A464E
:10026C004FF40071034801F0A4FD00BF0837BD46F0
:10027C0080BD00BF0008014080B500AF2A4B1A7842
:10028C002A4B1A702A4B1A782A4B1A702A4B1A7856
:10029C002A4B1A70244B1A78294B1A70264B1A7851
:1002AC00284B1A70264B1B78274AA2FB0323DB082A
:1002BC00DBB21A46254B1A60214B1A78224BA3FB52
:1002CC000213D9080B469B000B445B00D31ADBB21C
:1002DC001A461E4B5A601B4B1B781B4AA2FB03236E
:1002EC00DB08DBB21A46194B9A60164B1A78164B80
:1002FC00A3FB0213D9080B469B000B445B00D31ADB
:10030C00DBB21A46114BDA60114B00221A70114BFA
:10031C0000221A70002000F077FE1E20FFF768FF05
:10032C0001F0EEF900BF80BD0300002006000020A4
:10033C000400002007000020050000200800002019
:10034C004600002047000020CDCCCCCC580000202B
:10035C00480000204D00002080B500AF194B002252
:10036C001A60184B02225A60174B1B78174AA2FBD3
:10037C000323DB08DBB21A46124B9A60124B1A7835
:10038C00124BA3FB0213D9080B469B000B445B00DA
:10039C00D31ADBB21A460B4BDA600D4B00221A70E3
:1003AC00094B1A780B4B1A700B4B00221A70002059
:1003BC0000F02AFE1B20FFF71BFF01F0A1F900BF84
:1003CC0080BD00BF5800002003000020CDCCCCCC59
:1003DC004D000020060000204E00002080B500AF2C
:1003EC00194B00221A60184B03225A60174B1B78CA
:1003FC00174AA2FB0323DB08DBB21A46124B9A60A6
:10040C00124B1A78124BA3FB0213D9080B469B0014
:10041C000B445B00D31ADBB21A460B4BDA600D4B64
:10042C0000221A70094B1A780B4B1A700B4B0022D6
:10043C001A70002000F0E8FD2D20FFF7D9FE01F026
:10044C005FF900BF80BD00BF5800002004000020F1
:10045C00CDCCCCCC4D000020070000204E0000205D
:10046C0080B500AF194B00221A60184B04225A6059
:10047C00174B1B78174AA2FB0323DB08DBB21A4687
:10048C00124B9A60124B1A78124BA3FB0213D90829
:10049C000B469B000B445B00D31ADBB21A460B4B8A
:1004AC00DA600D4B00221A70094B1A780B4B1A703C
:1004BC000B4B00221A70002000F0A6FD3620FFF72F
:1004CC0097FE01F01DF900BF80BD00BF5800002051
:1004DC0005000020CDCCCCCC4D0000200800002025
:1004EC004E00002080B500AFA34B1B780B3B032BB9
:1004FC0000F2BF8101A252F823F000BF19050008D9
:10050C00E5050008B9060008AD0700081E20FFF736
:10051C006FFE9A4B1B78012B15D101F0F1F8984B1B
:10052C001B78002B05D0964B1B78013BDAB2944B11
:10053C001A70944B1B78002B05D0924B1B78013B07
:10054C00DAB2904B1A708F4B1B78002B06D18E4B66
:10055C001A788C4B1A70884B0C221A708B4B1B78A8
:10056C00012B40F08881894B00221A70844B1B7838
:10057C00874AA2FB0323DB08DBB21A46854B1A60C1
:10058C007F4B1A78824BA3FB0213D9080B469B00B6
:10059C000B445B00D31ADBB21A467E4B5A60794B84
:1005AC001B787B4AA2FB0323DB08DBB21A46794B90
:1005BC009A60744B1A78764BA3FB0213D9080B463E
:1005CC009B000B445B00D31ADBB21A46714BDA600A
:1005DC00012000F019FD4EE11D20FFF709FE674BCD
:1005EC001B78012B15D101F08BF8654B1B78002B78
:1005FC0005D0634B1B78013BDAB2614B1A70614B2F
:10060C001B78002B05D05F4B1B78013BDAB25D4B9E
:10061C001A705C4B1B78002B0AD15F4B1A78594B24
:10062C001A705E4B1A78564B1A70534B0D221A7077
:10063C00564B1B78012B40F02081544B00221A7032
:10064C004F4B1B78524AA2FB0323DB08DBB21A4642
:10065C00504B1A604A4B1A784D4BA3FB0213D90826
:10066C000B469B000B445B00D31ADBB21A46494B7A
:10067C005A60444B1B78464AA2FB0323DB08DBB2CF
:10068C001A46444B9A603F4B1A78414BA3FB02131A
:10069C00D9080B469B000B445B00D31ADBB21A46FD
:1006AC003C4BDA60012000F0AFFCE6E03320FFF7B2
:1006BC009FFD324B1B78012B15D101F021F8304BEB
:1006CC001B78002B05D02E4B1B78013BDAB22C4B40
:1006DC001A702C4B1B78002B05D02A4B1B78013B36
:1006EC00DAB2284B1A70264B1B78002B06D1264BFE
:1006FC001A78234B1A70204B0E221A70234B1B783E
:10070C00012B40F0BC80214B00221A701C4B1B7833
:10071C001F4AA2FB0323DB08DBB21A461D4B1A60EF
:10072C00174B1A781A4BA3FB0213D9080B469B00E4
:10073C000B445B00D31ADBB21A46164B5A60114BB2
:10074C001B78134AA2FB0323DB08DBB21A46114BBE
:10075C009A600C4B1A780E4BA3FB0213D9080B466C
:10076C009B000B445B00D31ADBB21A46094BDA60D0
:10077C00012000F049FC82E0450000204C000020E4
:10078C004600002047000020040000204D000020FF
:10079C00CDCCCCCC5800002003000020050000205C
:1007AC002B20FFF725FD384B1B78012B15D100F0C2
:1007BC00A7FF364B1B78002B05D0344B1B78013B25
:1007CC00DAB2324B1A70324B1B78002B05D0304BFF
:1007DC001B78013BDAB22E4B1A702C4B1B78002B7A
:1007EC000AD12C4B1A78294B1A702B4B1A78284BA0
:1007FC001A702A4B0B221A70294B1B78012B40D1F3
:10080C00274B00221A70214B1B78264AA2FB03238C
:10081C00DB08DBB21A46244B1A601C4B1A78214BAE
:10082C00A3FB0213D9080B469B000B445B00D31AA5
:10083C00DBB21A461C4B5A60154B1B78194AA2FBAB
:10084C000323DB08DBB21A46174B9A60104B1A785D
:10085C00144BA3FB0213D9080B469B000B445B0003
:10086C00D31ADBB21A46104BDA60012000F0CCFB35
:10087C0007E000BF06E000BF04E000BF02E000BFDD
:10088C0000E000BF00BF80BD4C00002046000020EF
:10089C004700002003000020050000204500002038
:1008AC004D000020CDCCCCCC5800002080B500AF42
:1008BC00344B1B78012B12D1324B00221A70324B65
:1008CC001B780133DAB2304B1A702F4B1B78642B28
:1008DC0002D02D4B1B7800E002232B4A13702B4BBC
:1008EC001B78012B28D1294B00221A70264B1B7820
:1008FC00012B02D8244B02221A70234B1A78244B5A
:10090C001A70244B1A78224B1B789A4205D3204B31
:10091C001B78013BDAB21F4B1A701E4B1B78002B55
:10092C0002D11C4B01221A70194B1A78194B1B78E7
:10093C00D31ADAB2184B1A70184B1B78012B1ED134
:10094C00164B00221A70104B1B78154AA2FB03237E
:10095C00DB08DBB21A46134B9A600B4B1A78104B20
:10096C00A3FB0213D9080B469B000B445B00D31A64
:10097C00DBB21A460B4BDA60012000F045FB00BFDE
:10098C0080BD00BF4A000020060000204B00002064
:10099C000300002004000020050000204D00002072
:1009AC00CDCCCCCC5800002080B500AF3C4B1B7894
:1009BC00012B12D13A4B00221A703A4B1B7801339F
:1009CC00DAB2384B1A70374B1B78642B02D0354B8C
:1009DC001B7800E00123334A1370334B1B78012B37
:1009EC0039D1314B00221A702E4B1B78002B03D1BE
:1009FC002E4B01221A7003E02A4B1A782B4B1A70DB
:100A0C002A4B1A782A4B1B789A4209D3284B1B780D
:100A1C00022B38BF0223DBB2013BDAB2234B1A7034
:100A2C00234B1A78214B1B78D31ADAB2214B1A704C
:100A3C00204B1B78002B0AD11E4B01221A701C4B29
:100A4C001A781C4B1B78D31ADAB2184B1A70174B46
:100A5C001A78144B1A70184B1B78012B1ED1164B9D
:100A6C0000221A700F4B1B78144AA2FB0323DB08DD
:100A7C00DBB21A46124B9A600A4B1A780F4BA3FB47
:100A8C000213D9080B469B000B445B00D31ADBB254
:100A9C001A460B4BDA60012000F0B6FA00BF80BD9D
:100AAC004A000020070000204B000020040000201A
:100ABC0003000020050000204D000020CDCCCCCC44
:100ACC005800002080B582B000AF3A4B1B78012B48
:100ADC0012D1384B00221A70374B1B780133DAB223
:100AEC00354B1A70344B1B78642B02D0324B1B786D
:100AFC0000E00123304A1370304B1B78012B32D1AC
:100B0C002E4B00221A702C4B1B78002B02D02A4B38
:100B1C001B7800E00123FB71294B1B78FA799A4270
:100B2C0003D3274B1B78013BFB71264AFB791370CF
:100B3C00234B1A78234B1B78D31ADAB2224B1A7038
:100B4C00214B1B78002B0AD11F4B01221A701C4B16
:100B5C001A781D4B1B78D31ADAB21A4B1A70194B30
:100B6C001A78154B1A70194B1B78012B1ED1174B89
:100B7C0000221A70104B1B78154AA2FB0323DB08CA
:100B8C00DBB21A46134B9A600B4B1A78104BA3FB33
:100B9C000213D9080B469B000B445B00D31ADBB243
:100BAC001A460C4BDA60012000F02EFA00BF083711
:100BBC00BD4680BD4A000020080000204B000020EC
:100BCC000300002005000020040000204D00002040
:100BDC00CDCCCCCC5800002080B500AF044B01220A
:100BEC001A70044B0B221A70FFF746FB00BF80BD36
:100BFC00440000204500002080B500AF404B1B781E
:100C0C00013B032B79D801A252F823F0290C0008E0
:100C1C00490C0008870C0008C70C0008394B1B78DE
:100C2C00012B08D1374B00221A70354B02221A7057
:100C3C00FFF792FB62E0FFF755FC5FE0314B1B784E
:100C4C00012B08D12F4B00221A702D4B03221A7046
:100C5C00FFF7C4FB52E02C4B1B78012B0AD12A4B1B
:100C6C0000221A701021294801F0BBF88021274876
:100C7C0001F0B7F8FFF71AFE40E0224B1B78012B6E
:100C8C0008D1204B00221A701D4B04221A70FFF75A
:100C9C00E7FB33E01C4B1B78012B0BD11A4B0022CA
:100CAC001A702021194801F09CF84FF480711748F4
:100CBC0001F097F8FFF778FE20E0124B1B78012B20
:100CCC0008D1104B00221A700D4B01221A70FFF73D
:100CDC0083FF13E00C4B1B78012B0BD10A4B00222A
:100CEC001A704021094801F07CF84FF40071074854
:100CFC0001F077F8FFF7E6FE00E000BF00BF80BD13
:100D0C0044000020490000204E0000200008014053
:100D1C0080B582B000AF00237B602EE01B4A7B685D
:100D2C00134419781A4A7B6813440A461A70022233
:100D3C007B6802FA03F39BB21946164801F022F8BD
:100D4C0003461946114A7B6813440A461A700F4A27
:100D5C007B6813441A780E497B680B441B789A42C3
:100D6C0008D10A4A7B68134419780B4A7B681344F0
:100D7C000A461A707B6801337B607B68022BCDDDE1
:100D8C0000BF00BF0837BD4680BD00BF500000202B
:100D9C0054000020000801400C00002080B483B0F7
:100DAC0000AF0346FB71FB79022B01D9002307E04E
:100DBC00FB79064AD35C002B0CBF01230023DBB26A
:100DCC0018460C37BD4680BC704700BF0C00002095
:100DDC0080B582B000AF78602B4A7B6813441B78D7
:100DEC0003F04003DBB21A460221284800F0E1FF71
:100DFC00254A7B6813441B7803F02003DBB21A46A8
:100E0C000421224800F0D5FF1F4A7B6813441B784D
:100E1C0003F01003DBB21A4608211C4800F0C9FF8E
:100E2C00194A7B6813441B7803F00803DBB21A469B
:100E3C001021164800F0BDFF134A7B6813441B7841
:100E4C0003F00403DBB21A462021104800F0B1FF76
:100E5C000D4A7B6813441B7803F00203DBB21A467D
:100E6C0040210A4800F0A5FF074A7B6813441B7811
:100E7C0003F00103DBB21A468021044800F099FF0D
:100E8C0000BF0837BD4680BD10000020000C01409B
:100E9C0080B582B000AF78602F4A7B6813441B7812
:100EAC0003F04003DBB21A464FF480712B4800F07C
:100EBC0080FF294A7B6813441B7803F02003DBB2C4
:100ECC001A464FF40071254800F073FF224A7B68E4
:100EDC0013441B7803F01003DBB21A464FF4806105
:100EEC001E4800F066FF1C4A7B6813441B7803F015
:100EFC000803DBB21A464FF40061184800F059FFA2
:100F0C00154A7B6813441B7803F00403DBB21A46C2
:100F1C004FF48051114800F04CFF0F4A7B6813448A
:100F2C001B7803F00203DBB21A464FF400510B4856
:100F3C0000F03FFF084A7B6813441B7803F0010361
:100F4C00DBB21A464FF48041044800F032FF00BF78
:100F5C000837BD4680BD00BF10000020000C0140CA
:100F6C0080B582B000AF78607B68032B22D801A2D9
:100F7C0052F823F0910F00089D0F0008A90F0008EC
:100F8C00B50F00081E4B1B681846FFF721FF12E037
:100F9C001B4B5B681846FFF71BFF0CE0184B9B685C
:100FAC001846FFF775FF06E0154BDB681846FFF790
:100FBC006FFF00E000BF7B68002B04D07B68012B27
:100FCC0001D0012300E00023DBB21A464FF480412C
:100FDC000C4800F0EEFE7B68022B04D07B68032BE0
:100FEC0001D0012300E00023DBB21A464FF400418C
:100FFC00044800F0DEFE00BF0837BD4680BD00BFD0
:10100C00580000200008014080B582B000AF0346B4
:10101C00FB71FB79002B03D10B4B00221A7010E0F3
:10102C00094B1B78002B01D0022300E0002318464B
:10103C00FFF796FF044B1B7883F00103DAB2024BE7
:10104C001A700837BD4680BD6800002080B500AF1F
:10105C0000F0AEFB00F03EF800F0CCF800F076F8B3
:10106C00164801F00DFB01F093FA144B5B68134A20
:10107C00D268194600F026FBFFF7AEFD00F040FBEE
:10108C0000F032F9012200210D4800F05DF9012237
:10109C0000210C4800F058F9012200210A4800F008
:1010AC0053F964220021094800F04EF90122002175
:1010BC00074800F049F900F015FAFCE77801002028
:1010CC00911600089D160008A9160008B71600080E
:1010DC00C316000880B590B000AF07F118032822A2
:1010EC000021184601F07CFE3B1D00221A605A605C
:1010FC009A60DA601A610223BB610123BB62102380
:10110C00FB6200237B6307F11803184600F082FE94
:10111C000346002B01D000F0E2F80F237B60002384
:10112C00BB600023FB6000233B6100237B613B1D04
:10113C000021184601F0EEF80346002B01D000F018
:10114C00CEF800BF4037BD4680BD000080B586B0EC
:10115C0000AF002200211C2000F063FC1C2000F0DA
:10116C007CFC07F1080300221A605A609A60DA606E
:10117C003B4600221A605A601D4B4FF080421A60A9
:10118C001B4B41F63F725A60194B00229A60184B68
:10119C000922DA60164B00221A61154B00229A6163
:1011AC00134801F01DFA0346002B01D000F097F80C
:1011BC004FF48053BB6007F1080319460C4801F04B
:1011CC009BFB0346002B01D000F089F800233B6009
:1011DC0000237B603B461946054801F073FD03462E
:1011EC00002B01D000F07BF800BF1837BD4680BD46
:1011FC007801002080B586B000AF07F1080300220B
:10120C001A605A609A60DA60284B9B69274A43F04F
:10121C0004039361254B9B6903F004037B607B689B
:10122C00224B9B69214A43F0080393611F4B9B6936
:10123C0003F008033B603B6800224CF2F0311C4881
:10124C0000F0B7FD002247F6FE711A4800F0B1FD20
:10125C000E23BB600023FB6001233B6107F10803F5
:10126C001946134800F014FC4CF2F033BB60012318
:10127C00FB6000233B6102237B6107F108031946E5
:10128C000B4800F005FC47F6FE73BB600123FB60C6
:10129C0000233B6102237B6107F1080319460548D3
:1012AC0000F0F6FB00BF1837BD4680BD00100240B1
:1012BC0000080140000C014080B582B000AF78609E
:1012CC007B681B68B3F1804F05D100F031FAFFF752
:1012DC001FFD00F0A9F800BF0837BD4680BD80B4E3
:1012EC0000AF72B600BFFEE780B483B000AF00233E
:1012FC007B601DE0134A7B681B01134400221A60BB
:10130C00104A7B681B011344043300221A600D4AF7
:10131C007B681B011344083300221A60094A7B685E
:10132C001B0113440C3300221A707B6801337B6061
:10133C007B680F2BDED900BF00BF0C37BD4680BCCD
:10134C00704700BF6C00002080B487B000AFF8601D
:10135C00B9607A6000237B6127E0184A7B691B0126
:10136C0013441B68002B1DD1144A7B691B011344C9
:10137C00FA681A60114A7B691B0113440433BA687A
:10138C001A600E4A7B691B01134408337A681A6091
:10139C000A4A7B691B0113440C3300221A707B69C7
:1013AC00DBB206E07B6901337B617B690F2BD4D9FF
:1013BC00FF2318461C37BD4680BC70476C000020CC
:1013CC0080B483B000AF78607B680F2B06D8154AC9
:1013DC007B681B0113441B68002B01D101231BE00C
:1013EC00104A7B681B01134400221A600D4A7B686B
:1013FC001B011344043300221A600A4A7B681B0148
:10140C001344083300221A60064A7B681B011344FC
:10141C000C3300221A70002318460C37BD4680BCD2
:10142C00704700BF6C00002080B483B000AF002375
:10143C007B604CE02A4A7B681B0113441B68002B21
:10144C0041D0274A7B681B01134404331B68002BD3
:10145C002BD1234A7B681B0113440C331B78FF2BC5
:10146C000ED01F4A7B681B0113440C331B780133CD
:10147C00D9B21B4A7B681B0113440C330A461A7001
:10148C00174A7B681B01134408331B68002B1BD0C5
:10149C00134A7B681B01134408331A6810497B6894
:1014AC001B010B4404331A600EE00D4A7B681B01D0
:1014BC00134404331B685A1E09497B681B010B44F7
:1014CC0004331A6000E000BF7B6801337B607B68EB
:1014DC000F2BAFD900BF00BF0C37BD4680BC704787
:1014EC006C00002080B582B000AF00237B6031E03F
:1014FC001C4A7B681B0113441B68002B27D0194A1C
:10150C007B681B0113440C331B78002B1FD0154A2E
:10151C007B681B0113440C331B78013BD9B2114A75
:10152C007B681B0113440C330A461A700D4A7B6806
:10153C001B0113441B6898470A4A7B681B01134420
:10154C0008331B68002B02D17868FFF739FF7B68E2
:10155C0001337B607B680F2BCAD900BF00BF0837F3
:10156C00BD4680BD6C00002080B485B000AF154B2B
:10157C009B69144A43F001039361124B9B6903F07E
:10158C000103BB60BB680F4BDB690E4A43F0805311
:10159C00D3610C4BDB6903F080537B607B680A4B97
:1015AC005B68FB60FB6823F0E063FB60FB6843F067
:1015BC008063FB60044AFB68536000BF1437BD4670
:1015CC0080BC7047001002400000014080B584B020
:1015DC0000AF78607B681B68B3F1804F13D10C4B64
:1015EC00DB690B4A43F00103D361094BDB6903F060
:1015FC000103FB60FB68002200211C2000F011FAA3
:10160C001C2000F02AFA00BF1037BD4680BD00BF79
:10161C000010024080B400AFFEE780B400AFFEE7DC
:10162C0080B400AFFEE780B400AFFEE780B400AF3B
:10163C00FEE780B400AF00BFBD4680BC704780B4ED
:10164C0000AF00BFBD4680BC704780B400AF00BF88
:10165C00BD4680BC704780B500AF00F0EFF800BF0E
:10166C0080BD000080B500AF024801F055F800BF06
:10167C0080BD00BF7801002080B400AF00BFBD4624
:10168C0080BC704780B500AFFFF742FB00BF80BD48
:10169C0080B500AF00F04CF800BF80BD80B500AF46
:1016AC000120FFF7B1FC00BF80BD80B500AFFFF794
:1016BC00A3FA00BF80BD80B500AFFEF741FD00BFAF
:1016CC0080BD000080B485B000AFF860B9607A606E
:1016DC00BB6801337A68013202FB03F34FF47A7270
:1016EC0002FB03F2FB68B2FBF3F31A46034B1A60DE
:1016FC0000BF1437BD4680BC704700BF6C01002092
:10170C0080B400AF074B1B684FF47A7292FBF3F373
:10171C00054A1360054B00221A7000BFBD4680BC01
:10172C00704700BF6C010020700100204C000020AD
:10173C0080B400AF094B1B8801339AB2074B1A8057
:10174C00064B1B88002B05D0044B00221A80044B3F
:10175C0001221A7000BFBD4680BC70477401002086
:10176C004D000020FFF788FF0B480C490C4A002362
:10177C0002E0D458C4500433C4188C42F9D3094A3B
:10178C00094C002301E013600432A242FBD301F0A8
:10179C0003FBFFF75BFC70470000002028000020D3
:1017AC00402E000828000020C4010020FEE70000A5
:1017BC0080B500AF084B1B68074A43F01003136059
:1017CC00032000F023F90F2000F008F8FFF7CCFEFF
:1017DC000023184680BD00BF0020024080B582B0B7
:1017EC0000AF7860124B1A68124B1B7819464FF4F5
:1017FC007A73B3FBF1F3B2FBF3F3184600F03BF949
:10180C000346002B01D001230EE07B680F2B0AD876
:10181C00002279684FF0FF3000F003F9064A7B682C
:10182C001360002300E0012318460837BD4680BD35
:10183C001C000020240000202000002080B400AFF9
:10184C00054B1B781A46054B1B681344034A13605F
:10185C0000BFBD4680BC704724000020C0010020A2
:10186C0080B400AF024B1B681846BD4680BC704765
:10187C00C001002080B485B000AF78607B6803F0B5
:10188C000703FB600C4BDB68BB60BA684FF6FF03C9
:10189C001340BB60FB681A02BB68134343F0BF6381
:1018AC0043F40033BB60044ABB68D36000BF1437F9
:1018BC00BD4680BC704700BF00ED00E080B400AFB7
:1018CC00044BDB681B0A03F007031846BD4680BCBB
:1018DC00704700BF00ED00E080B483B000AF03465A
:1018EC00FB7197F90730002B0BDBFB7903F01F0220
:1018FC00064997F907305B09012000FA02F241F81A
:10190C00232000BF0C37BD4680BC704700E100E0CF
:10191C0080B483B000AF03463960FB7197F9073090
:10192C00002B0ADB3B68DAB20C4997F9073012013D
:10193C00D2B20B4483F800230AE03B68DAB20849C0
:10194C00FB7903F00F03043B1201D2B20B441A765D
:10195C0000BF0C37BD4680BC704700BF00E100E003
:10196C0000ED00E080B489B000AFF860B9607A6037
:10197C00FB6803F00703FB61FB69C3F10703042B4E
:10198C0028BF0423BB61FB690433062B02D9FB6916
:10199C00033B00E000237B614FF0FF32BB6902FA8E
:1019AC0003F3DA43BB681A407B699A404FF0FF316E
:1019BC007B6901FA03F3D9437B680B401343184648
:1019CC002437BD4680BC704780B582B000AF7860CC
:1019DC007B68013BB3F1807F01D301230FE00A4AFE
:1019EC007B68013B53600F214FF0FF30FFF790FFF6
:1019FC00054B00229A60044B07221A6000231846FC
:101A0C000837BD4680BD00BF10E000E080B582B055
:101A1C0000AF78607868FFF72DFF00BF0837BD4630
:101A2C0080BD80B586B000AF0346B9607A60FB73A9
:101A3C0000237B61FFF742FF78617A68B9687869A7
:101A4C00FFF790FF024697F90F3011461846FFF743
:101A5C005FFF00BF1837BD4680BD80B582B000AFB8
:101A6C000346FB7197F907301846FFF735FF00BFA7
:101A7C000837BD4680BD80B582B000AF786078680D
:101A8C00FFF7A2FF034618460837BD4680BD00008D
:101A9C0080B48BB000AF7860396000237B62002388
:101AAC003B6248E101227B6A02FA03F3FB613B686B
:101ABC001B68FA691340BB61BA69FB699A4240F032
:101ACC0037813B685B68A34A93425ED0A14A93423C
:101ADC0075D8A14A934258D09F4A93426FD89F4AD7
:101AEC00934252D09D4A934269D89D4A93424CD01E
:101AFC009B4A934263D89B4A934246D0994A93425D
:101B0C005DD8122B2AD8122B59D801A252F823F0E7
:101B1C00971B0008711B0008831B0008C51B0008DD
:101B2C00CB1B0008CB1B0008CB1B0008CB1B0008F1
:101B3C00CB1B0008CB1B0008CB1B0008CB1B0008E1
:101B4C00CB1B0008CB1B0008CB1B0008CB1B0008D1
:101B5C00CB1B0008791B00088D1B0008824A93429E
:101B6C0013D02CE03B68DB683B6229E03B68DB6808
:101B7C0004333B6224E03B68DB6808333B621FE0C4
:101B8C003B68DB680C333B621AE03B689B68002BBC
:101B9C0002D104233B6213E03B689B68012B05D107
:101BAC0008233B627B68FA691A6109E008233B62EF
:101BBC007B68FA695A6103E000233B6200E000BFD6
:101BCC00BB69FF2B01D87B6801E07B6804337B6128
:101BDC00BB69FF2B02D87B6A9B0002E07B6A083B47
:101BEC009B003B617B691A680F213B6901FA03F387
:101BFC00DB431A40396A3B6901FA03F31A437B69E8
:101C0C001A603B685B6803F08053002B00F09080F7
:101C1C00564B9B69554A43F001039361534B9B69A7
:101C2C0003F00103BB60BB68514A7B6A9B0802331B
:101C3C0052F82330FB607B6A03F003039B000F22F6
:101C4C0002FA03F3DB43FA681340FB607B68494AF2
:101C5C0093420DD07B68484A934207D07B68474A31
:101C6C00934201D1022304E0032302E0012300E0AC
:101C7C0000237A6A02F0030292009340FA6813433D
:101C8C00FB603B497B6A9B080233FA6841F82320CE
:101C9C003B685B6803F48013002B06D0384B9A68C2
:101CAC003749BB6913438B6006E0354B9A68BB69B7
:101CBC00DB43334913408B603B685B6803F40013D0
:101CCC00002B06D02E4BDA682D49BB691343CB6031
:101CDC0006E02B4BDA68BB69DB4329491340CB6028
:101CEC003B685B6803F40033002B06D0244B5A6826
:101CFC002349BB6913434B6006E0214B5A68BB690F
:101D0C00DB431F4913404B603B685B6803F4803333
:101D1C00002B06D01A4B1A681949BB6913430B6088
:101D2C0006E0174B1A68BB69DB43154913400B607F
:101D3C007B6A01337B623B681A687B6A22FA03F385
:101D4C00002B7FF4AFAE00BF00BF2C37BD4680BC6C
:101D5C00704700BF0000321000003110000022104C
:101D6C0000002110000012100000111000100240A1
:101D7C000000014000080140000C0140001001402F
:101D8C000004014080B485B000AF78600B467B80C6
:101D9C007B689A687B881340002B02D00123FB736D
:101DAC0001E00023FB73FB7B18461437BD4680BC57
:101DBC00704780B483B000AF78600B467B801346CD
:101DCC007B707B78002B03D07A887B681A6103E0E8
:101DDC007B881A047B681A6100BF0C37BD4680BC37
:101DEC00704780B485B000AF78600B467B807B6811
:101DFC00DB68FB607A88FB6813401A04FB68D943E4
:101E0C007B880B401A437B681A6100BF1437BD46B0
:101E1C0080BC704780B586B000AF78607B68002BC3
:101E2C0001D101236CE27B681B6803F00103002BDA
:101E3C0000F08780924B5B6803F00C03042B0CD0F2
:101E4C008F4B5B6803F00C03082B12D18C4B5B6837
:101E5C0003F48033B3F5803F0BD1894B1B6803F43B
:101E6C000033002B6CD07B685B68002B68D101239E
:101E7C0046E27B685B68B3F5803F06D1804B1B68FC
:101E8C007F4A43F4803313602EE07B685B68002B41
:101E9C000CD17B4B1B687A4A23F480331360784B4C
:101EAC001B68774A23F4802313601DE07B685B6812
:101EBC00B3F5A02F0CD1724B1B68714A43F48023ED
:101ECC0013606F4B1B686E4A43F4803313600BE056
:101EDC006B4B1B686A4A23F480331360684B1B6896
:101EEC00674A23F4802313607B685B68002B13D054
:101EFC00FFF7B6FC386108E0FFF7B2FC02463B691D
:101F0C00D31A642B01D90323FAE15D4B1B6803F44C
:101F1C000033002BF0D014E0FFF7A2FC386108E08E
:101F2C00FFF79EFC02463B69D31A642B01D90323AD
:101F3C00E6E1534B1B6803F40033002BF0D100E0B7
:101F4C0000BF7B681B6803F00203002B63D04C4B73
:101F5C005B6803F00C03002B0BD0494B5B6803F060
:101F6C000C03082B1CD1464B5B6803F48033002B0D
:101F7C0016D1434B1B6803F00203002B05D07B6882
:101F8C001B69012B01D00123BAE13D4B1B6823F0E7
:101F9C00F8027B685B69DB00394913430B603AE05C
:101FAC007B681B69002B20D0364B01221A60FFF78F
:101FBC0057FC386108E0FFF753FC02463B69D31A23
:101FCC00022B01D903239BE12D4B1B6803F0020369
:101FDC00002BF0D02A4B1B6823F0F8027B685B695E
:101FEC00DB00274913430B6015E0264B00221A60D7
:101FFC00FFF736FC386108E0FFF732FC02463B691C
:10200C00D31A022B01D903237AE11D4B1B6803F071
:10201C000203002BF0D17B681B6803F00803002B34
:10202C003AD07B689B69002B19D0174B01221A60A0
:10203C00FFF716FC386108E0FFF712FC02463B691B
:10204C00D31A022B01D903235AE10D4B5B6A03F01F
:10205C000203002BF0D0012000F0A4FA1CE00A4B84
:10206C0000221A60FFF7FCFB38610FE0FFF7F8FB6A
:10207C0002463B69D31A022B08D9032340E100BF67
:10208C000010024000004242800442429E4B5B6AB8
:10209C0003F00203002BE9D17B681B6803F00403F7
:1020AC00002B00F0A6800023FB75974BDB6903F037
:1020BC008053002B0DD1944BDB69934A43F0805332
:1020CC00D361914BDB6903F08053BB60BB68012388
:1020DC00FB758E4B1B6803F48073002B18D18B4B54
:1020EC001B688A4A43F480731360FFF7B9FB3861AD
:1020FC0008E0FFF7B5FB02463B69D31A642B01D904
:10210C000323FDE0814B1B6803F48073002BF0D09C
:10211C007B68DB68012B06D17B4B1B6A7A4A43F048
:10212C00010313622DE07B68DB68002B0CD1764B2E
:10213C001B6A754A23F001031362734B1B6A724AC4
:10214C0023F0040313621CE07B68DB68052B0CD1C5
:10215C006D4B1B6A6C4A43F0040313626A4B1B6A97
:10216C00694A43F0010313620BE0674B1B6A664A32
:10217C0023F001031362644B1B6A634A23F00403CC
:10218C0013627B68DB68002B15D0FFF769FB3861A5
:10219C000AE0FFF765FB02463B69D31A41F288322D
:1021AC00934201D90323ABE0574B1B6A03F00203A4
:1021BC00002BEED014E0FFF753FB38610AE0FFF779
:1021CC004FFB02463B69D31A41F28832934201D944
:1021DC00032395E04C4B1B6A03F00203002BEED15A
:1021EC00FB7D012B05D1484BDB69474A23F080531B
:1021FC00D3617B68DB69002B00F08180424B5B680C
:10220C0003F00C03082B61D07B68DB69022B46D1F1
:10221C003F4B00221A60FFF723FB386108E0FFF701
:10222C001FFB02463B69D31A022B01D9032367E03B
:10223C00354B1B6803F00073002BF0D17B681B6AD5
:10224C00B3F5803F08D1304B5B6823F400327B68D8
:10225C009B682D4913434B602B4B5B6823F4741222
:10226C007B68196A7B685B6A0B43274913434B6095
:10227C00274B01221A60FFF7F3FA386108E0FFF7E9
:10228C00EFFA02463B69D31A022B01D9032337E03C
:10229C001D4B1B6803F00073002BF0D02FE01C4B80
:1022AC0000221A60FFF7DCFA386108E0FFF7D8FA71
:1022BC0002463B69D31A022B01D9032320E0124BAF
:1022CC001B6803F00073002BF0D118E07B68DB690E
:1022DC00012B01D1012313E00B4B5B68FB60FB6806
:1022EC0003F480327B681B6A9A4206D1FB6803F4C4
:1022FC0070127B685B6A9A4201D0012300E00023D4
:10230C0018461837BD4680BD0010024000700040D2
:10231C006000424280B584B000AF786039607B6861
:10232C00002B01D10123D0E06A4B1B6803F007039B
:10233C003A689A4210D9674B1B6823F0070265492B
:10234C003B6813430B60634B1B6803F007033A684D
:10235C009A4201D00123B8E07B681B6803F00203AA
:10236C00002B20D07B681B6803F00403002B05D0E6
:10237C00594B5B68584A43F4E06353607B681B68B5
:10238C0003F00803002B05D0534B5B68524A43F40F
:10239C0060535360504B5B6823F0F0027B689B6882
:1023AC004D4913434B607B681B6803F00103002B02
:1023BC0040D07B685B68012B07D1474B1B6803F44B
:1023CC000033002B15D101237FE07B685B68022B67
:1023DC0007D1414B1B6803F00073002B09D101237B
:1023EC0073E03D4B1B6803F00203002B01D101236A
:1023FC006BE0394B5B6823F003027B685B68364902
:10240C0013434B60FFF72CFAF8600AE0FFF728FA49
:10241C000246FB68D31A41F28832934201D9032356
:10242C0053E02D4B5B6803F00C027B685B689B00F0
:10243C009A42EBD1274B1B6803F007033A689A4288
:10244C0010D2244B1B6823F0070222493B6813432C
:10245C000B60204B1B6803F007033A689A4201D0CB
:10246C00012332E07B681B6803F00403002B08D0C7
:10247C00194B5B6823F4E0627B68DB6816491343F5
:10248C004B607B681B6803F00803002B09D0124BD0
:10249C005B6823F460527B681B69DB000E491343B5
:1024AC004B6000F021F802460B4B5B681B0903F0F4
:1024BC000F030A49CB5C22FA03F3094A1360094B58
:1024CC001B681846FFF78AF9002318461037BD46DB
:1024DC0080BD00BF0020024000100240142E0008F6
:1024EC001C0000202000002080B487B000AF002327
:1024FC00FB600023BB6000237B6100237B60002317
:10250C003B611E4B5B68FB60FB6803F00C03042B08
:10251C0002D0082B03D027E0194B3B6127E0FB6866
:10252C009B0C03F00F03174AD35C7B60FB6803F42E
:10253C008033002B10D0114B5B685B0C03F0010354
:10254C00114AD35CBB607B680D4A02FB03F2BB688B
:10255C00B2FBF3F37B6104E07B680C4A02FB03F3F0
:10256C007B617B693B6102E0054B3B6100BF3B69D2
:10257C0018461C37BD4680BC704700BF0010024097
:10258C0000127A00242E0008342E000800093D00A9
:10259C0080B400AF024B1B681846BD4680BC704728
:1025AC001C00002080B485B000AF78600A4B1B681B
:1025BC000A4AA2FB03235B0A7A6802FB03F3FB6063
:1025CC0000BFFB685A1EFA60002BF9D100BF00BF98
:1025DC001437BD4680BC70471C000020D34D6210E0
:1025EC0080B582B000AF78607B68002B01D10123ED
:1025FC0041E07B6893F83D30DBB2002B06D17B6861
:10260C00002283F83C207868FEF7E0FF7B6802220A
:10261C0083F83D207B681A687B68043319461046A2
:10262C0000F056FA7B68012283F846207B68012271
:10263C0083F83E207B68012283F83F207B680122CF
:10264C0083F840207B68012283F841207B680122BB
:10265C0083F842207B68012283F843207B680122A7
:10266C0083F844207B68012283F845207B68012293
:10267C0083F83D20002318460837BD4680BD000076
:10268C0080B485B000AF78607B6893F83D30DBB2E6
:10269C00012B01D0012335E07B68022283F83D2019
:1026AC007B681B68DA687B681B6842F00102DA60A1
:1026BC007B681B68164A934209D07B681B68B3F190
:1026CC00804F04D07B681B68124A934211D17B68FF
:1026DC001B689B6803F00703FB60FB68062B10D09C
:1026EC007B681B681A687B681B6842F001021A60E1
:1026FC0007E07B681B681A687B681B6842F0010264
:10270C001A60002318461437BD4680BC704700BFC2
:10271C00002C01400004004080B584B000AF78600C
:10272C007B681B68DB68FB607B681B681B69BB6094
:10273C00BB6803F00203002B20D0FB6803F00203FC
:10274C00002B1BD07B681B686FF002021A617B6840
:10275C0001221A777B681B689B6903F00303002B2B
:10276C0003D0786800F098F905E0786800F08BF9F0
:10277C00786800F09AF97B6800221A77BB6803F03E
:10278C000403002B20D0FB6803F00403002B1BD0A8
:10279C007B681B686FF004021A617B6802221A774F
:1027AC007B681B689B6903F44073002B03D078682B
:1027BC0000F072F905E0786800F065F9786800F0CF
:1027CC0074F97B6800221A77BB6803F00803002BAE
:1027DC0020D0FB6803F00803002B1BD07B681B6820
:1027EC006FF008021A617B6804221A777B681B68F9
:1027FC00DB6903F00303002B03D0786800F04CF97D
:10280C0005E0786800F03FF9786800F04EF97B68D5
:10281C0000221A77BB6803F01003002B20D0FB6852
:10282C0003F01003002B1BD07B681B686FF01002A9
:10283C001A617B6808221A777B681B68DB6903F4D2
:10284C004073002B03D0786800F026F905E0786817
:10285C0000F019F9786800F028F97B6800221A77E3
:10286C00BB6803F00103002B0CD0FB6803F00103E1
:10287C00002B07D07B681B686FF001021A61786827
:10288C00FEF71AFDBB6803F08003002B0CD0FB682D
:10289C0003F08003002B07D07B681B686FF080026D
:1028AC001A61786800F06FFABB6803F04003002BE4
:1028BC000CD0FB6803F04003002B07D07B681B682F
:1028CC006FF040021A61786800F0F8F8BB6803F00A
:1028DC002003002B0CD0FB6803F02003002B07D047
:1028EC007B681B686FF020021A61786800F042FA6E
:1028FC0000BF1037BD4680BD80B584B000AF786096
:10290C0039600023FB737B6893F83C30012B01D1B9
:10291C000223B4E07B68012283F83C207B6802220E
:10292C0083F83D207B681B689B68BB60BB6823F009
:10293C007703BB60BB6823F47F43BB607B681B6879
:10294C00BA689A603B681B68B3F5005F3ED0B3F57C
:10295C00005F00F28780B3F5805F00F08680B3F5EE
:10296C00805F7FD8702B1AD0702B7BD8602B50D007
:10297C00602B77D8502B3CD0502B73D8402B58D091
:10298C00402B6FD8302B64D0302B6BD8202B60D0E1
:10299C00202B67D8002B5CD0102B5AD062E07B68C0
:1029AC0018683B6899683B685A683B68DB6800F0BC
:1029BC006AF97B681B689B68BB60BB6843F0770354
:1029CC00BB607B681B68BA689A604FE07B681868CC
:1029DC003B6899683B685A683B68DB6800F053F9C0
:1029EC007B681B689A687B681B6842F480429A601B
:1029FC003CE07B6818683B6859683B68DB681A46A2
:102A0C0000F0CAF87B681B685021184600F021F9C9
:102A1C002CE07B6818683B6859683B68DB681A4691
:102A2C0000F0E8F87B681B686021184600F011F98B
:102A3C001CE07B6818683B6859683B68DB681A4681
:102A4C0000F0AAF87B681B684021184600F001F9D9
:102A5C000CE07B681A683B681B681946104600F04E
:102A6C00F8F803E00123FB7300E000BF7B68012250
:102A7C0083F83D207B68002283F83C20FB7B1846C2
:102A8C001037BD4680BD80B483B000AF786000BF06
:102A9C000C37BD4680BC704780B483B000AF786003
:102AAC0000BF0C37BD4680BC704780B483B000AF0C
:102ABC00786000BF0C37BD4680BC704780B483B0D3
:102ACC0000AF786000BF0C37BD4680BC704700007B
:102ADC0080B485B000AF786039607B681B68FB60A0
:102AEC007B682B4A934207D07B68B3F1804F03D0AD
:102AFC007B68284A934208D1FB6823F07003FB6083
:102B0C003B685B68FA681343FB607B68204A93421E
:102B1C0007D07B68B3F1804F03D07B681D4A93428A
:102B2C0008D1FB6823F44073FB603B68DB68FA68F0
:102B3C001343FB60FB6823F080023B685B69134323
:102B4C00FB607B68FA681A603B689A687B68DA629B
:102B5C003B681A687B689A627B680D4A934203D182
:102B6C003B681A697B681A637B6801225A617B682F
:102B7C001B6903F00103002B05D07B681B6923F054
:102B8C0001027B681A6100BF1437BD4680BC7047D8
:102B9C00002C01400004004080B487B000AFF86006
:102BAC00B9607A60FB681B6A7B61FB681B6A23F067
:102BBC000102FB681A62FB689B693B613B6923F06D
:102BCC00F0033B617B681B013A6913433B617B69F2
:102BDC0023F00A037B617A69BB6813437B61FB6852
:102BEC003A699A61FB687A691A6200BF1C37BD4664
:102BFC0080BC704780B487B000AFF860B9607A6071
:102C0C00FB681B6A7B61FB681B6A23F01002FB6884
:102C1C001A62FB689B693B613B6923F470433B611F
:102C2C007B681B033A6913433B617B6923F0A00368
:102C3C007B61BB681B017A6913437B61FB683A6952
:102C4C009A61FB687A691A6200BF1C37BD4680BC6A
:102C5C00704780B485B000AF786039607B689B6842
:102C6C00FB60FB6823F07003FB603A68FB6813435E
:102C7C0043F00703FB607B68FA689A6000BF143767
:102C8C00BD4680BC704780B487B000AFF860B960B7
:102C9C007A603B60FB689B687B617B6923F47F43B4
:102CAC007B613B681A027B681A43BB6813437A69E1
:102CBC0013437B61FB687A699A6000BF1C37BD4681
:102CCC0080BC704780B485B000AF786039607B6899
:102CDC0093F83C30012B01D1022341E07B680122A7
:102CEC0083F83C207B68022283F83D207B681B68BC
:102CFC005B68FB607B681B689B68BB60FB6823F0B0
:102D0C007003FB603B681B68FA681343FB607B68CD
:102D1C001B68FA685A607B681B68144A934209D096
:102D2C007B681B68B3F1804F04D07B681B68104A2A
:102D3C0093420CD1BB6823F08003BB603B685B689B
:102D4C00BA681343BB607B681B68BA689A607B687F
:102D5C00012283F83D207B68002283F83C2000236D
:102D6C0018461437BD4680BC704700BF002C01408C
:102D7C000004004080B483B000AF786000BF0C3713
:102D8C00BD4680BC704780B483B000AF786000BF94
:102D9C000C37BD4680BC704770B500260C4D0D4CF1
:102DAC00641BA410A64209D100F022F800260A4D9B
:102DBC000A4C641BA410A64205D170BD55F8043B07
:102DCC0098470136EEE755F8043B98470136F2E791
:102DDC00382E0008382E0008382E00083C2E00082B
:102DEC0003460244934200D1704703F8011BF9E7F4
:102DFC00F8B500BFF8BC08BC9E467047F8B500BFDC
:082E0C00F8BC08BC9E467047AB
:102E14000000000000000000010203040607080986
:102E240002030405060708090A0B0C0D0E0F101007
:042E34000102000097
:042E3800310100085C
:042E3C000D0100087C
:102E40000101010502030502030000000101010068
:102E5000014F12064C24200F0004000000127A00DB
:082E6000100000000100000059
:040000050800177167
:00000001FF
