:020000040800F2
:100000000028002035140008B5120008BB120008B3
:10001000C1120008C7120008CD120008000000003D
:10002000000000000000000000000000D3120008E3
:10003000DF12000800000000EB120008F7120008B1
:100040007D1400087D1400087D1400087D1400084C
:100050007D1400087D1400087D1400087D1400083C
:100060007D1400087D1400087D1400087D1400082C
:100070007D1400087D1400087D1400087D1400081C
:100080007D1400087D1400087D1400087D1400080C
:100090007D1400087D1400087D1400087D140008FC
:1000A0007D1400087D1400087D1400087D140008EC
:1000B000051300087D140008000000007D140008EE
:1000C0007D14000800000000000000007D140008FE
:1000D000000000007D1400087D14000800000000EE
:1000E0007D1400087D1400087D1400080000000045
:1000F0000000000000000000000000000000000000
:0C01000000000000000000005FF808F1A3
:10010C0010B5054C237833B9044B13B10448AFF345
:10011C0000800123237010BD280000200000000087
:10012C00C02A000808B5034B1BB103490348AFF3C1
:10013C00008008BD000000002C000020C02A000830
:10014C0080B582B000AF0023FB7140E0FB79244AFC
:10015C00D35C012B02D0022B27D035E0FB7918465B
:10016C0000F0C2FD0346002B2BD0FB791C4A022168
:10017C00D154FB79002B0CBF01230023DBB21A46B0
:10018C00184B1A70FB79012B0CBF01230023DBB237
:10019C001A46154B1A70FB79022B0CBF0123002356
:1001AC00DBB21A46114B1A700BE0FB79184600F0C3
:1001BC009BFD0346002B06D1FB79094A0121D15442
:1001CC0002E000BF00E000BFFB790133FB71FB795B
:1001DC00022BBBD900BF00BF0837BD4680BD00BF96
:1001EC0000000020470000204800002049000020AB
:1001FC0080B582B000AF0346FB71FB7903F020039E
:10020C00DBB21A4610211B4801F035FCFB7903F0D8
:10021C001003DBB21A462021164801F02CFCFB79A6
:10022C0003F00803DBB21A464021124801F023FC0C
:10023C00FB7903F00403DBB21A4680210D4801F070
:10024C001AFCFB7903F00203DBB21A464FF48071FF
:10025C00084801F010FCFB7903F00103DBB21A46ED
:10026C004FF40071034801F006FC00BF0837BD468F
:10027C0080BD00BF0008014080B500AF264B1A7846
:10028C00264B1A70264B1A78264B1A70264B1A7866
:10029C00264B1A70214B1B78254AA2FB0323DB0843
:1002AC00DBB21A46234B1A601C4B1A78204BA3FB6B
:1002BC000213D9080B469B000B445B00D31ADBB22C
:1002CC001A461C4B5A60194B1B78194AA2FB032384
:1002DC00DB08DBB21A46174B9A60144B1A78144B96
:1002EC00A3FB0213D9080B469B000B445B00D31AEB
:1002FC00DBB21A460F4BDA600F4B00221A700F4B11
:10030C0000221A70002000F025FE1E20FFF770FF5F
:10031C0001F020F800BF80BD030000200600002083
:10032C000400002007000020050000200800002029
:10033C00CDCCCCCC58000020460000204B00002037
:10034C0080B500AF194B00221A60184B02225A607C
:10035C00174B1B78174AA2FB0323DB08DBB21A46A8
:10036C00124B9A60124B1A78124BA3FB0213D9084A
:10037C000B469B000B445B00D31ADBB21A460B4BAB
:10038C00DA600D4B00221A70094B1A780B4B1A705D
:10039C000B4B00221A70002000F0DCFD1B20FFF735
:1003AC0027FF00F0D7FF00BF80BD00BF5800002022
:1003BC0003000020CDCCCCCC4B000020060000204C
:1003CC004C00002080B500AF194B00221A60184B6E
:1003DC0003225A60174B1B78174AA2FB0323DB0836
:1003EC00DBB21A46124B9A60124B1A78124BA3FBD3
:1003FC000213D9080B469B000B445B00D31ADBB2EB
:10040C001A460B4BDA600D4B00221A70094B1A7806
:10041C000B4B1A700B4B00221A70002000F09AFD47
:10042C002D20FFF7E5FE00F095FF00BF80BD00BF5B
:10043C005800002004000020CDCCCCCC4B00002078
:10044C00070000204C00002080B500AF184B0022A4
:10045C001A60174B04225A60164B1B78164AA2FBE3
:10046C000323DB08DBB21A46114B9A60114B1A7846
:10047C00114BA3FB0213D9080B469B000B445B00EA
:10048C00D31ADBB21A460A4BDA600C4B00221A70F4
:10049C000B4B00221A700B4B00221A70002000F03C
:1004AC0059FD3620FFF7A4FE00F054FF00BF80BDBD
:1004BC005800002005000020CDCCCCCC4B000020F7
:1004CC00080000204C00002080B500AF8D4B1B783D
:1004DC000B3B032B00F2DB8101A252F823F000BF8F
:1004EC00FD040008D5050008B5060008BD07000886
:1004FC001E20FFF77DFE844B1B78012B17D100F0DB
:10050C0029FF824B1B78013BDAB2804B1A707F4B70
:10051C001B78002B0CBF01230023DBB21A467C4B4B
:10052C001A707C4B1B78013BDAB27A4B1A70784B01
:10053C001B78012B0AD1764B00221A70714B0C22BE
:10054C001A70754B1A78714B1A70A9E1734B1B78A2
:10055C00012B40F09E81714B00221A706D4B1B7861
:10056C006F4AA2FB0323DB08DBB21A466D4B1A6001
:10057C00684B1A786A4BA3FB0213D9080B469B00F5
:10058C000B445B00D31ADBB21A46664B5A605F4BC6
:10059C001B78634AA2FB0323DB08DBB21A46614BD0
:1005AC009A605A4B1A785E4BA3FB0213D9080B4680
:1005BC009B000B445B00D31ADBB21A46594BDA6032
:1005CC00012000F0C7FC64E11D20FFF711FE4E4B2B
:1005DC001B78012B17D100F0BDFE534B1B78013B50
:1005EC00DAB2514B1A70504B1B78002B0CBF012305
:1005FC000023DBB21A46464B1A70464B1B78013B64
:10060C00DAB2444B1A70424B1B78012B0ED1404B83
:10061C0000221A703B4B0D221A70444B1A783D4B3A
:10062C001A70434B1A78404B1A7039E13B4B1B78CC
:10063C00012B40F03081394B00221A70354B1B785E
:10064C00374AA2FB0323DB08DBB21A46354B1A6090
:10065C00304B1A78324BA3FB0213D9080B469B0084
:10066C000B445B00D31ADBB21A462E4B5A602E4B4E
:10067C001B782B4AA2FB0323DB08DBB21A46294B5F
:10068C009A60294B1A78264BA3FB0213D9080B4608
:10069C009B000B445B00D31ADBB21A46214BDA6089
:1006AC00012000F057FCF6E03320FFF7A1FD164BBC
:1006BC001B78012B17D100F04DFE144B1B78013B1E
:1006CC00DAB2124B1A70114B1B78002B0CBF0123A2
:1006DC000023DBB21A460E4B1A700E4B1B78013BF3
:1006EC00DAB20C4B1A700A4B1B78012B22D1084B37
:1006FC0000221A70034B0E221A70074B1A78034B08
:10070C001A70CDE0450000204A00002008000020AF
:10071C004600002006000020050000204B000020B1
:10072C00CDCCCCCC580000200700002003000020CA
:10073C00040000205B4B1B78012B40F0AE80594B22
:10074C0000221A70584B1B78584AA2FB0323DB0873
:10075C00DBB21A46564B1A60534B1A78534BA3FB19
:10076C000213D9080B469B000B445B00D31ADBB277
:10077C001A464F4B5A604F4B1B784C4AA2FB032333
:10078C00DB08DBB21A464A4B9A604A4B1A78474B45
:10079C00A3FB0213D9080B469B000B445B00D31A36
:1007AC00DBB21A46424BDA60012000F0D3FB74E056
:1007BC002B20FFF71DFD404B1B78012B17D100F0B0
:1007CC00C9FD3E4B1B78013BDAB23C4B1A703B4BDC
:1007DC001B78002B0CBF01230023DBB21A46384BCD
:1007EC001A70344B1B78013BDAB2324B1A70344B13
:1007FC001B78012B0ED1324B00221A70314B0B227D
:10080C001A70314B1A782B4B1A70304B1A782B4BC1
:10081C001A7045E0234B1B78012B40D1214B002251
:10082C001A70264B1B78214AA2FB0323DB08DBB290
:10083C001A461F4B1A60214B1A781C4BA3FB021350
:10084C00D9080B469B000B445B00D31ADBB21A464B
:10085C00174B5A60174B1B78144AA2FB0323DB0877
:10086C00DBB21A46124B9A60124B1A780F4BA3FB51
:10087C000213D9080B469B000B445B00D31ADBB266
:10088C001A460B4BDA60012000F064FB07E000BF56
:10089C0006E000BF04E000BF02E000BF00E000BFC4
:1008AC0000BF80BD4B00002008000020CDCCCCCC7C
:1008BC0058000020060000204A00002007000020FD
:1008CC00460000204500002003000020040000200A
:1008DC0080B500AF234B1B78012B12D1214B00228A
:1008EC001A70214B1B780133DAB21F4B1A701E4B56
:1008FC001B78642B02D01C4B1B7800E002231A4A95
:10090C0013701A4B1B78012B06D1184B00221A704E
:10091C00154B1A78164B1A70164B1B78012B1ED1DF
:10092C00144B00221A70104B1B78134AA2FB0323A2
:10093C00DB08DBB21A46114B9A600B4B1A780E4B44
:10094C00A3FB0213D9080B469B000B445B00D31A84
:10095C00DBB21A46094BDA60012000F0FBFA00BF4B
:10096C0080BD00BF48000020060000204900002088
:10097C00030000204B000020CDCCCCCC5800002034
:10098C0080B500AF294B1B78012B12D1274B0022CD
:10099C001A70274B1B780133DAB2254B1A70244B93
:1009AC001B78642B02D0224B1B7800E00123204AD9
:1009BC001370204B1B78012B12D11E4B00221A7086
:1009CC001B4B1A781C4B1B789A4202D2184B1B7883
:1009DC0000E00123194A1370184B1A78144B1A7043
:1009EC00174B1B78012B1ED1154B00221A70104B84
:1009FC001B78144AA2FB0323DB08DBB21A46124B0A
:100A0C009A600B4B1A780F4BA3FB0213D9080B46B9
:100A1C009B000B445B00D31ADBB21A460A4BDA601C
:100A2C00012000F097FA00BF80BD00BF48000020F5
:100A3C0007000020490000200300002004000020D3
:100A4C004B000020CDCCCCCC5800002080B500AFA2
:100A5C00274B1B78012B12D1254B00221A70254BEA
:100A6C001B780133DAB2234B1A70224B1B78642BA0
:100A7C0002D0204B1B7800E001231E4A13701E4B42
:100A8C001B78012B0ED11C4B00221A701B4B1A78B1
:100A9C001B4B1B78D31ADAB21A4B1A70194B1A78F3
:100AAC00144B1A70184B1B78012B1ED1164B0022BD
:100ABC001A70104B1B78154AA2FB0323DB08DBB220
:100ACC001A46134B9A600B4B1A78104BA3FB02136C
:100ADC00D9080B469B000B445B00D31ADBB21A46B9
:100AEC000B4BDA60012000F035FA00BF80BD00BF6F
:100AFC0048000020080000204900002003000020CE
:100B0C0004000020050000204B000020CDCCCCCCF4
:100B1C005800002080B500AF044B01221A70044B22
:100B2C000B221A70FFF7A8FB00BF80BD4400002009
:100B3C004500002080B500AF434B1B78013B032BD5
:100B4C0079D801A252F823F0650B0008850B000838
:100B5C00C30B0008030C00083C4B1B78012B08D17D
:100B6C003A4B00221A70384B02221A70FFF7E8FB3E
:100B7C0062E0FFF7A9FC5FE0344B1B78012B08D136
:100B8C00324B00221A70304B03221A70FFF71AFCFA
:100B9C0052E02F4B1B78012B0AD12D4B00221A70DF
:100BAC0010212C4800F07FFF80212A4800F07BFFA9
:100BBC00FFF78EFE40E0254B1B78012B08D1234B11
:100BCC0000221A70204B04221A70FFF73DFC33E010
:100BDC001F4B1B78012B0BD11D4B00221A702021AF
:100BEC001C4800F060FF4FF480711A4800F05BFF66
:100BFC00FFF7C6FE20E0154B1B78012B08D1134BD9
:100C0C0000221A70104B01221A70FFF783FF13E0B9
:100C1C000F4B1B78012B0BD10D4B00221A7040216E
:100C2C000C4800F040FF4FF400710A4800F03BFF05
:100C3C00FFF70CFF00E000BF074B1B78012B01D125
:100C4C0000F088FB00BF80BD44000020470000205E
:100C5C004C000020000801404A00002080B582B002
:100C6C0000AF00237B602EE01B4A7B68134419788D
:100C7C001A4A7B6813440A461A7002227B6802FAED
:100C8C0003F39BB21946164800F0DEFE03461946E4
:100C9C00114A7B6813440A461A700F4A7B68134446
:100CAC001A780E497B680B441B789A4208D10A4A81
:100CBC007B68134419780B4A7B6813440A461A70F4
:100CCC007B6801337B607B68022BCDDD00BF00BFEE
:100CDC000837BD4680BD00BF5000002054000020E6
:100CEC00000801400C00002080B483B000AF034624
:100CFC00FB71FB79022B01D9002307E0FB79064A33
:100D0C00D35C002B0CBF01230023DBB218460C373D
:100D1C00BD4680BC704700BF0C00002080B582B07F
:100D2C0000AF78602B4A7B6813441B7803F04003B8
:100D3C00DBB21A460221284800F09DFE254A7B684A
:100D4C0013441B7803F02003DBB21A46042122481B
:100D5C0000F091FE1F4A7B6813441B7803F01003CC
:100D6C00DBB21A4608211C4800F085FE194A7B6844
:100D7C0013441B7803F00803DBB21A461021164803
:100D8C0000F079FE134A7B6813441B7803F00403CC
:100D9C00DBB21A462021104800F06DFE0D4A7B682C
:100DAC0013441B7803F00203DBB21A4640210A48B5
:100DBC0000F061FE074A7B6813441B7803F00103C3
:100DCC00DBB21A468021044800F055FE00BF0837FC
:100DDC00BD4680BD10000020000C014080B582B0E3
:100DEC0000AF78602F4A7B6813441B7803F04003F4
:100DFC00DBB21A464FF480712B4800F03CFE294AB6
:100E0C007B6813441B7803F02003DBB21A464FF4C3
:100E1C000071254800F02FFE224A7B6813441B7892
:100E2C0003F01003DBB21A464FF480611E4800F049
:100E3C0022FE1C4A7B6813441B7803F00803DBB2C8
:100E4C001A464FF40061184800F015FE154A7B68ED
:100E5C0013441B7803F00403DBB21A464FF48051A1
:100E6C00114800F008FE0F4A7B6813441B7803F00E
:100E7C000203DBB21A464FF400510B4800F0FBFDA5
:100E8C00084A7B6813441B7803F00103DBB21A4653
:100E9C004FF48041044800F0EEFD00BF0837BD461A
:100EAC0080BD00BF10000020000C014080B582B056
:100EBC0000AF78607B68032B22D801A252F823F094
:100ECC00DD0E0008E90E0008F50E0008010F000801
:100EDC001E4B1B681846FFF721FF12E01B4B5B688B
:100EEC001846FFF71BFF0CE0184B9B681846FFF7E2
:100EFC0075FF06E0154BDB681846FFF76FFF00E047
:100F0C0000BF7B68002B04D07B68022B01D001232F
:100F1C0000E00023DBB21A464FF480410C4800F08D
:100F2C00AAFD7B68012B04D07B68032B01D0012325
:100F3C0000E00023DBB21A464FF40041044800F0F5
:100F4C009AFD00BF0837BD4680BD00BF5800002089
:100F5C000008014080B582B000AF0346FB71114B15
:100F6C001A78FB791340DBB2002B02D0012B0AD08C
:100F7C0013E00120FFF79AFF0320FFF797FF094BBF
:100F8C0001221A7009E00020FFF790FF0220FFF702
:100F9C008DFF044B00221A7000BF00BF0837BD46FE
:100FAC0080BD00BF6800002080B500AF00F062FA81
:100FBC0000F01CF800F0AAF800F054F80A4801F010
:100FCC00C1F901F047F9084B5B68074AD26819462A
:100FDC0000F0A2F9FFF79EFD00F0BCF9FFF7B0F8A6
:100FEC00FFF7A8FDFAE700BF7400002080B590B0B1
:100FFC0000AF07F1180328220021184601F052FD1A
:10100C003B1D00221A605A609A60DA601A61022352
:10101C00BB610123BB621023FB6200237B6307F1DE
:10102C001803184600F058FD0346002B01D000F0C1
:10103C00E0F80F237B600023BB600023FB600023E0
:10104C003B6100237B613B1D0021184600F0C4FF6F
:10105C000346002B01D000F0CCF800BF4037BD4652
:10106C0080BD000080B586B000AF002200211C209E
:10107C0000F039FB1C2000F052FB07F108030022A2
:10108C001A605A609A60DA603B4600221A605A6015
:10109C001D4B4FF080421A601B4B41F63F725A6059
:1010AC00194B00229A60184B0922DA60164B002269
:1010BC001A61154B00229A61134801F0F3F80346AC
:1010CC00002B01D000F095F84FF48053BB6007F172
:1010DC00080319460C4801F071FA0346002B01D0A5
:1010EC0000F087F800233B6000237B603B461946E9
:1010FC00054801F049FC0346002B01D000F079F8BB
:10110C0000BF1837BD4680BD7400002080B586B086
:10111C0000AF07F1080300221A605A609A60DA6087
:10112C00284B9B69274A43F004039361254B9B6929
:10113C0003F004037B607B68224B9B69214A43F0DC
:10114C00080393611F4B9B6903F008033B603B68EA
:10115C0000224CF2F0311C4800F08DFC002247F6C6
:10116C00FE711A4800F087FC0E23BB600023FB6065
:10117C0001233B6107F108031946134800F0EAFA12
:10118C004CF2F033BB600123FB6000233B61022374
:10119C007B6107F1080319460B4800F0DBFA47F6B0
:1011AC00FE73BB600123FB6000233B6102237B6168
:1011BC0007F108031946054800F0CCFA00BF1837B0
:1011CC00BD4680BD0010024000080140000C0140EB
:1011DC0080B582B000AF78607B681B68B3F1804F3C
:1011EC0003D100F0CFF8FFF739FD00BF0837BD463B
:1011FC0080BD80B400AF72B600BFFEE780B485B08E
:10120C0000AF154B9B69144A43F001039361124BD9
:10121C009B6903F00103BB60BB680F4BDB690E4A93
:10122C0043F08053D3610C4BDB6903F080537B603C
:10123C007B680A4B5B68FB60FB6823F0E063FB6038
:10124C00FB6843F08063FB60044AFB68536000BF9B
:10125C001437BD4680BC70470010024000000140AE
:10126C0080B584B000AF78607B681B68B3F1804FA9
:10127C0013D10C4BDB690B4A43F00103D361094BCF
:10128C00DB6903F00103FB60FB68002200211C20DA
:10129C0000F029FA1C2000F042FA00BF1037BD46BE
:1012AC0080BD00BF0010024080B400AFFEE780B4E8
:1012BC0000AFFEE780B400AFFEE780B400AFFEE7FE
:1012CC0080B400AFFEE780B400AF00BFBD4680BC69
:1012DC00704780B400AF00BFBD4680BC704780B47F
:1012EC0000AF00BFBD4680BC704780B500AF00F0BA
:1012FC0007F900BF80BD000080B500AF024801F0C7
:10130C006DF800BF80BD00BF7400002080B400AF3A
:10131C0000BFBD4680BC704780B485B000AFF8609C
:10132C00B9607A60BB6801337A68013202FB03F35F
:10133C004FF47A7202FB03F2FB68B2FBF3F31A462A
:10134C00034B1A6000BF1437BD4680BC704700BF0A
:10135C006C00002080B400AF074B1B684FF47A720E
:10136C0092FBF3F3054A1360054B00221A7000BF81
:10137C00BD4680BC704700BF6C0000207000002090
:10138C004A00002080B400AF224B1B68013B214A6D
:10139C001360204B1B68002B02DC1F4B01221A70C0
:1013AC001E4B1B6840F2EE2292FBF3F2194B1B68AA
:1013BC009A4216D0194B1B684FF4FA7292FBF3F257
:1013CC00144B1B689A420CD0144B1B68FA2292FBEC
:1013DC00F3F2104B1B689A4203D00E4B1B68002B88
:1013EC0002DC0F4B01221A700C4B1B684FF4FA7283
:1013FC0092FBF3F2074B1B689A4203D0054B1B6818
:10140C00002B02DC074B01221A7000BFBD4680BCCA
:10141C00704700BF700000204A0000206C000020C4
:10142C004C0000204B000020FFF770FF0B480C49CC
:10143C000C4A002302E0D458C4500433C4188C4224
:10144C00F9D3094A094C002301E013600432A2428B
:10145C00FBD301F003FBFFF7A7FD70470000002052
:10146C0028000020042B000828000020C0000020C9
:10147C00FEE7000080B500AF084B1B68074A43F03D
:10148C0010031360032000F023F90F2000F008F87C
:10149C00FFF7B4FE0023184680BD00BF00200240B9
:1014AC0080B582B000AF7860124B1A68124B1B7873
:1014BC0019464FF47A73B3FBF1F3B2FBF3F318460E
:1014CC0000F03BF90346002B01D001230EE07B68B2
:1014DC000F2B0AD8002279684FF0FF3000F003F987
:1014EC00064A7B681360002300E001231846083786
:1014FC00BD4680BD1C0000202400002020000020E0
:10150C0080B400AF054B1B781A46054B1B6813447F
:10151C00034A136000BFBD4680BC70472400002006
:10152C00BC00002080B400AF024B1B681846BD46BF
:10153C0080BC7047BC00002080B485B000AF7860E0
:10154C007B6803F00703FB600C4BDB68BB60BA687D
:10155C004FF6FF031340BB60FB681A02BB681343D2
:10156C0043F0BF6343F40033BB60044ABB68D360F1
:10157C0000BF1437BD4680BC704700BF00ED00E0D3
:10158C0080B400AF044BDB681B0A03F0070318465A
:10159C00BD4680BC704700BF00ED00E080B483B056
:1015AC0000AF0346FB7197F90730002B0BDBFB797F
:1015BC0003F01F02064997F907305B09012000FA76
:1015CC0002F241F8232000BF0C37BD4680BC7047A7
:1015DC0000E100E080B483B000AF03463960FB71DA
:1015EC0097F90730002B0ADB3B68DAB20C4997F904
:1015FC0007301201D2B20B4483F800230AE03B6897
:10160C00DAB20849FB7903F00F03043B1201D2B2A2
:10161C000B441A7600BF0C37BD4680BC704700BF28
:10162C0000E100E000ED00E080B489B000AFF860AC
:10163C00B9607A60FB6803F00703FB61FB69C3F1D7
:10164C000703042B28BF0423BB61FB690433062B5F
:10165C0002D9FB69033B00E000237B614FF0FF32B2
:10166C00BB6902FA03F3DA43BB681A407B699A4000
:10167C004FF0FF317B6901FA03F3D9437B680B40D0
:10168C00134318462437BD4680BC704780B582B0E2
:10169C0000AF78607B68013BB3F1807F01D30123FD
:1016AC000FE00A4A7B68013B53600F214FF0FF307B
:1016BC00FFF790FF054B00229A60044B07221A603B
:1016CC00002318460837BD4680BD00BF10E000E07F
:1016DC0080B582B000AF78607868FFF72DFF00BF4F
:1016EC000837BD4680BD80B586B000AF0346B960F3
:1016FC007A60FB7300237B61FFF742FF78617A68A5
:10170C00B9687869FFF790FF024697F90F301146D8
:10171C001846FFF75FFF00BF1837BD4680BD80B588
:10172C0082B000AF0346FB7197F907301846FFF7FC
:10173C0035FF00BF0837BD4680BD80B582B000AF15
:10174C0078607868FFF7A2FF034618460837BD4655
:10175C0080BD000080B48BB000AF7860396000238E
:10176C007B6200233B6248E101227B6A02FA03F3AD
:10177C00FB613B681B68FA691340BB61BA69FB6982
:10178C009A4240F037813B685B68A34A93425ED033
:10179C00A14A934275D8A14A934258D09F4A93428A
:1017AC006FD89F4A934252D09D4A934269D89D4A22
:1017BC0093424CD09B4A934263D89B4A934246D067
:1017CC00994A93425DD8122B2AD8122B59D801A2D0
:1017DC0052F823F05B180008351800084718000869
:1017EC00891800088F1800088F1800088F18000837
:1017FC008F1800088F1800088F1800088F18000821
:10180C008F1800088F1800088F1800088F18000810
:10181C008F1800088F1800083D1800085118000890
:10182C00824A934213D02CE03B68DB683B6229E090
:10183C003B68DB6804333B6224E03B68DB680833BD
:10184C003B621FE03B68DB680C333B621AE03B6891
:10185C009B68002B02D104233B6213E03B689B681E
:10186C00012B05D108233B627B68FA691A6109E0F8
:10187C0008233B627B68FA695A6103E000233B62F0
:10188C0000E000BFBB69FF2B01D87B6801E07B68DF
:10189C0004337B61BB69FF2B02D87B6A9B0002E09F
:1018AC007B6A083B9B003B617B691A680F213B6993
:1018BC0001FA03F3DB431A40396A3B6901FA03F37B
:1018CC001A437B691A603B685B6803F08053002BFA
:1018DC0000F09080564B9B69554A43F0010393618D
:1018EC00534B9B6903F00103BB60BB68514A7B6A95
:1018FC009B08023352F82330FB607B6A03F003032E
:10190C009B000F2202FA03F3DB43FA681340FB60DF
:10191C007B68494A93420DD07B68484A934207D072
:10192C007B68474A934201D1022304E0032302E07F
:10193C00012300E000237A6A02F003029200934034
:10194C00FA681343FB603B497B6A9B080233FA68D5
:10195C0041F823203B685B6803F48013002B06D00E
:10196C00384B9A683749BB6913438B6006E0354B9B
:10197C009A68BB69DB43334913408B603B685B68F7
:10198C0003F40013002B06D02E4BDA682D49BB69EB
:10199C001343CB6006E02B4BDA68BB69DB43294968
:1019AC001340CB603B685B6803F40033002B06D01C
:1019BC00244B5A682349BB6913434B6006E0214B07
:1019CC005A68BB69DB431F4913404B603B685B683B
:1019DC0003F48033002B06D01A4B1A681949BB69E3
:1019EC0013430B6006E0174B1A68BB69DB431549C0
:1019FC0013400B607B6A01337B623B681A687B6A1D
:101A0C0022FA03F3002B7FF4AFAE00BF00BF2C37DC
:101A1C00BD4680BC704700BF000032100000311082
:101A2C000000221000002110000012100000111004
:101A3C00001002400000014000080140000C014071
:101A4C00001001400004014080B485B000AF786004
:101A5C000B467B807B689A687B881340002B02D0F6
:101A6C000123FB7301E00023FB73FB7B1846143747
:101A7C00BD4680BC704780B483B000AF78600B4625
:101A8C007B8013467B707B78002B03D07A887B6835
:101A9C001A6103E07B881A047B681A6100BF0C375B
:101AAC00BD4680BC704780B485B000AF78600B46F3
:101ABC007B807B68DB68FB607A88FB6813401A04C8
:101ACC00FB68D9437B880B401A437B681A6100BFC3
:101ADC001437BD4680BC704780B586B000AF7860C7
:101AEC007B68002B01D101236CE27B681B6803F03F
:101AFC000103002B00F08780924B5B6803F00C0312
:101B0C00042B0CD08F4B5B6803F00C03082B12D109
:101B1C008C4B5B6803F48033B3F5803F0BD1894B5E
:101B2C001B6803F40033002B6CD07B685B68002BC4
:101B3C0068D1012346E27B685B68B3F5803F06D130
:101B4C00804B1B687F4A43F4803313602EE07B6824
:101B5C005B68002B0CD17B4B1B687A4A23F48033D7
:101B6C001360784B1B68774A23F4802313601DE0C5
:101B7C007B685B68B3F5A02F0CD1724B1B68714A64
:101B8C0043F4802313606F4B1B686E4A43F480331D
:101B9C0013600BE06B4B1B686A4A23F480331360B1
:101BAC00684B1B68674A23F4802313607B685B686F
:101BBC00002B13D0FFF7B6FC386108E0FFF7B2FC3E
:101BCC0002463B69D31A642B01D90323FAE15D4B1E
:101BDC001B6803F40033002BF0D014E0FFF7A2FCD9
:101BEC00386108E0FFF79EFC02463B69D31A642B70
:101BFC0001D90323E6E1534B1B6803F40033002B9C
:101C0C00F0D100E000BF7B681B6803F00203002BDF
:101C1C0063D04C4B5B6803F00C03002B0BD0494B8F
:101C2C005B6803F00C03082B1CD1464B5B6803F478
:101C3C008033002B16D1434B1B6803F00203002B9F
:101C4C0005D07B681B69012B01D00123BAE13D4B08
:101C5C001B6823F0F8027B685B69DB00394913438E
:101C6C000B603AE07B681B69002B20D0364B0122BD
:101C7C001A60FFF757FC386108E0FFF753FC024687
:101C8C003B69D31A022B01D903239BE12D4B1B6813
:101C9C0003F00203002BF0D02A4B1B6823F0F80250
:101CAC007B685B69DB00274913430B6015E0264B0F
:101CBC0000221A60FFF736FC386108E0FFF732FCAF
:101CCC0002463B69D31A022B01D903237AE11D4B3F
:101CDC001B6803F00203002BF0D17B681B6803F038
:101CEC000803002B3AD07B689B69002B19D0174B4B
:101CFC0001221A60FFF716FC386108E0FFF712FCAE
:101D0C0002463B69D31A022B01D903235AE10D4B2E
:101D1C005B6A03F00203002BF0D0012000F0A4FA60
:101D2C001CE00A4B00221A60FFF7FCFB38610FE045
:101D3C00FFF7F8FB02463B69D31A022B08D90323A1
:101D4C0040E100BF001002400000424280044242C9
:101D5C009E4B5B6A03F00203002BE9D17B681B6886
:101D6C0003F00403002B00F0A6800023FB75974BB7
:101D7C00DB6903F08053002B0DD1944BDB69934A44
:101D8C0043F08053D361914BDB6903F08053BB600C
:101D9C00BB680123FB758E4B1B6803F48073002B0F
:101DAC0018D18B4B1B688A4A43F480731360FFF77E
:101DBC00B9FB386108E0FFF7B5FB02463B69D31A63
:101DCC00642B01D90323FDE0814B1B6803F4807362
:101DDC00002BF0D07B68DB68012B06D17B4B1B6A98
:101DEC007A4A43F0010313622DE07B68DB68002B19
:101DFC000CD1764B1B6A754A23F001031362734BAB
:101E0C001B6A724A23F0040313621CE07B68DB68D4
:101E1C00052B0CD16D4B1B6A6C4A43F00403136207
:101E2C006A4B1B6A694A43F0010313620BE0674B70
:101E3C001B6A664A23F001031362644B1B6A634AF4
:101E4C0023F0040313627B68DB68002B15D0FFF7CB
:101E5C0069FB38610AE0FFF765FB02463B69D31A60
:101E6C0041F28832934201D90323ABE0574B1B6AF2
:101E7C0003F00203002BEED014E0FFF753FB3861A4
:101E8C000AE0FFF74FFB02463B69D31A41F2883256
:101E9C00934201D9032395E04C4B1B6A03F00203D8
:101EAC00002BEED1FB7D012B05D1484BDB69474A5A
:101EBC0023F08053D3617B68DB69002B00F08180B9
:101ECC00424B5B6803F00C03082B61D07B68DB6929
:101EDC00022B46D13F4B00221A60FFF723FB3861DF
:101EEC0008E0FFF71FFB02463B69D31A022B01D90E
:101EFC00032367E0354B1B6803F00073002BF0D114
:101F0C007B681B6AB3F5803F08D1304B5B6823F4C8
:101F1C0000327B689B682D4913434B602B4B5B68ED
:101F2C0023F474127B68196A7B685B6A0B4327493C
:101F3C0013434B60274B01221A60FFF7F3FA386109
:101F4C0008E0FFF7EFFA02463B69D31A022B01D9DE
:101F5C00032337E01D4B1B6803F00073002BF0D0FC
:101F6C002FE01C4B00221A60FFF7DCFA386108E006
:101F7C00FFF7D8FA02463B69D31A022B01D9032387
:101F8C0020E0124B1B6803F00073002BF0D118E01B
:101F9C007B68DB69012B01D1012313E00B4B5B68E0
:101FAC00FB60FB6803F480327B681B6A9A4206D1A3
:101FBC00FB6803F470127B685B6A9A4201D00123C0
:101FCC0000E0002318461837BD4680BD00100240C3
:101FDC00007000406000424280B584B000AF786071
:101FEC0039607B68002B01D10123D0E06A4B1B6860
:101FFC0003F007033A689A4210D9674B1B6823F029
:10200C00070265493B6813430B60634B1B6803F085
:10201C0007033A689A4201D00123B8E07B681B6839
:10202C0003F00203002B20D07B681B6803F0040331
:10203C00002B05D0594B5B68584A43F4E06353605E
:10204C007B681B6803F00803002B05D0534B5B68BF
:10205C00524A43F460535360504B5B6823F0F002D8
:10206C007B689B684D4913434B607B681B6803F08E
:10207C000103002B40D07B685B68012B07D1474BD9
:10208C001B6803F40033002B15D101237FE07B6820
:10209C005B68022B07D1414B1B6803F00073002BCC
:1020AC0009D1012373E03D4B1B6803F00203002BA5
:1020BC0001D101236BE0394B5B6823F003027B6891
:1020CC005B68364913434B60FFF72CFAF8600AE063
:1020DC00FFF728FA0246FB68D31A41F28832934282
:1020EC0001D9032353E02D4B5B6803F00C027B6892
:1020FC005B689B009A42EBD1274B1B6803F00703EC
:10210C003A689A4210D2244B1B6823F007022249EA
:10211C003B6813430B60204B1B6803F007033A68C2
:10212C009A4201D0012332E07B681B6803F0040360
:10213C00002B08D0194B5B6823F4E0627B68DB68EA
:10214C00164913434B607B681B6803F00803002B94
:10215C0009D0124B5B6823F460527B681B69DB006F
:10216C000E4913434B6000F021F802460B4B5B68A1
:10217C001B0903F00F030A49CB5C22FA03F3094A4B
:10218C001360094B1B681846FFF78AF900231846A1
:10219C001037BD4680BD00BF002002400010024039
:1021AC00D82A00081C0000202000002080B487B032
:1021BC0000AF0023FB600023BB6000237B61002386
:1021CC007B6000233B611E4B5B68FB60FB6803F08C
:1021DC000C03042B02D0082B03D027E0194B3B61D6
:1021EC0027E0FB689B0C03F00F03174AD35C7B6062
:1021FC00FB6803F48033002B10D0114B5B685B0C35
:10220C0003F00103114AD35CBB607B680D4A02FBEF
:10221C0003F2BB68B2FBF3F37B6104E07B680C4A0E
:10222C0002FB03F37B617B693B6102E0054B3B6185
:10223C0000BF3B6918461C37BD4680BC704700BFC9
:10224C000010024000127A00E82A0008F82A000860
:10225C0000093D0080B400AF024B1B681846BD4618
:10226C0080BC70471C00002080B485B000AF786043
:10227C000A4B1B680A4AA2FB03235B0A7A6802FB1F
:10228C0003F3FB6000BFFB685A1EFA60002BF9D108
:10229C0000BF00BF1437BD4680BC70471C00002037
:1022AC00D34D621080B582B000AF78607B68002B94
:1022BC0001D1012341E07B6893F83D30DBB2002B68
:1022CC0006D17B68002283F83C207868FEF7C8FFB3
:1022DC007B68022283F83D207B681A687B68043394
:1022EC001946104600F056FA7B68012283F8462006
:1022FC007B68012283F83E207B68012283F83F2013
:10230C007B68012283F840207B68012283F84120FE
:10231C007B68012283F842207B68012283F84320EA
:10232C007B68012283F844207B68012283F84520D6
:10233C007B68012283F83D20002318460837BD46F0
:10234C0080BD000080B485B000AF78607B6893F8E6
:10235C003D30DBB2012B01D0012335E07B6802223A
:10236C0083F83D207B681B68DA687B681B6842F049
:10237C000102DA607B681B68164A934209D07B68BD
:10238C001B68B3F1804F04D07B681B68124A9342E0
:10239C0011D17B681B689B6803F00703FB60FB682B
:1023AC00062B10D07B681B681A687B681B6842F090
:1023BC0001021A6007E07B681B681A687B681B685F
:1023CC0042F001021A60002318461437BD4680BC47
:1023DC00704700BF002C01400004004080B584B061
:1023EC0000AF78607B681B68DB68FB607B681B68F0
:1023FC001B69BB60BB6803F00203002B20D0FB6899
:10240C0003F00203002B1BD07B681B686FF00202E9
:10241C001A617B6801221A777B681B689B6903F041
:10242C000303002B03D0786800F098F905E0786876
:10243C0000F08BF9786800F09AF97B6800221A7723
:10244C00BB6803F00403002B20D0FB6803F00403EB
:10245C00002B1BD07B681B686FF004021A617B6831
:10246C0002221A777B681B689B6903F44073002B6C
:10247C0003D0786800F072F905E0786800F065F92F
:10248C00786800F074F97B6800221A77BB6803F057
:10249C000803002B20D0FB6803F00803002B1BD093
:1024AC007B681B686FF008021A617B6804221A773C
:1024BC007B681B68DB6903F00303002B03D078688F
:1024CC0000F04CF905E0786800F03FF9786800F00E
:1024DC004EF97B6800221A77BB6803F01003002BBF
:1024EC0020D0FB6803F01003002B1BD07B681B680B
:1024FC006FF010021A617B6808221A777B681B68E0
:10250C00DB6903F44073002B03D0786800F026F9E4
:10251C0005E0786800F019F9786800F028F97B6814
:10252C0000221A77BB6803F00103002B0CD0FB6868
:10253C0003F00103002B07D07B681B686FF00102CE
:10254C001A617868FEF744FEBB6803F08003002B29
:10255C000CD0FB6803F08003002B07D07B681B6852
:10256C006FF080021A61786800F06FFABB6803F0B4
:10257C004003002B0CD0FB6803F04003002B07D06A
:10258C007B681B686FF040021A61786800F0F8F8FD
:10259C00BB6803F02003002B0CD0FB6803F0200376
:1025AC00002B07D07B681B686FF020021A617868DB
:1025BC0000F042FA00BF1037BD4680BD80B584B034
:1025CC0000AF786039600023FB737B6893F83C3074
:1025DC00012B01D10223B4E07B68012283F83C205B
:1025EC007B68022283F83D207B681B689B68BB607C
:1025FC00BB6823F07703BB60BB6823F47F43BB60ED
:10260C007B681B68BA689A603B681B68B3F5005F0F
:10261C003ED0B3F5005F00F28780B3F5805F00F029
:10262C008680B3F5805F7FD8702B1AD0702B7BD847
:10263C00602B50D0602B77D8502B3CD0502B73D8BC
:10264C00402B58D0402B6FD8302B64D0302B6BD80C
:10265C00202B60D0202B67D8002B5CD0102B5AD0AD
:10266C0062E07B6818683B6899683B685A683B680D
:10267C00DB6800F06AF97B681B689B68BB60BB6811
:10268C0043F07703BB607B681B68BA689A604FE0C5
:10269C007B6818683B6899683B685A683B68DB68DC
:1026AC0000F053F97B681B689A687B681B6842F4DE
:1026BC0080429A603CE07B6818683B6859683B68CC
:1026CC00DB681A4600F0CAF87B681B685021184674
:1026DC0000F021F92CE07B6818683B6859683B686E
:1026EC00DB681A4600F0E8F87B681B686021184626
:1026FC0000F011F91CE07B6818683B6859683B686E
:10270C00DB681A4600F0AAF87B681B684021184663
:10271C0000F001F90CE07B681A683B681B681946ED
:10272C00104600F0F8F803E00123FB7300E000BF53
:10273C007B68012283F83D207B68002283F83C20D3
:10274C00FB7B18461037BD4680BD80B483B000AF0C
:10275C00786000BF0C37BD4680BC704780B483B036
:10276C0000AF786000BF0C37BD4680BC704780B4AA
:10277C0083B000AF786000BF0C37BD4680BC70479B
:10278C0080B483B000AF786000BF0C37BD4680BC0E
:10279C007047000080B485B000AF786039607B680A
:1027AC001B68FB607B682B4A934207D07B68B3F1B4
:1027BC00804F03D07B68284A934208D1FB6823F0F2
:1027CC007003FB603B685B68FA681343FB607B68D3
:1027DC00204A934207D07B68B3F1804F03D07B68CB
:1027EC001D4A934208D1FB6823F44073FB603B689D
:1027FC00DB68FA681343FB60FB6823F080023B68DC
:10280C005B691343FB607B68FA681A603B689A68E3
:10281C007B68DA623B681A687B689A627B680D4A4F
:10282C00934203D13B681A697B681A637B68012267
:10283C005A617B681B6903F00103002B05D07B6890
:10284C001B6923F001027B681A6100BF1437BD4677
:10285C0080BC7047002C01400004004080B487B05D
:10286C0000AFF860B9607A60FB681B6A7B61FB683B
:10287C001B6A23F00102FB681A62FB689B693B61CF
:10288C003B6923F0F0033B617B681B013A691343FE
:10289C003B617B6923F00A037B617A69BB68134354
:1028AC007B61FB683A699A61FB687A691A6200BFBE
:1028BC001C37BD4680BC704780B487B000AFF86051
:1028CC00B9607A60FB681B6A7B61FB681B6A23F04A
:1028DC001002FB681A62FB689B693B613B6923F43D
:1028EC0070433B617B681B033A6913433B617B6913
:1028FC0023F0A0037B61BB681B017A6913437B61E6
:10290C00FB683A699A61FB687A691A6200BF1C37E6
:10291C00BD4680BC704780B485B000AF786039602C
:10292C007B689B68FB60FB6823F07003FB603A6874
:10293C00FB68134343F00703FB607B68FA689A60FB
:10294C0000BF1437BD4680BC704780B487B000AF61
:10295C00F860B9607A603B60FB689B687B617B695F
:10296C0023F47F437B613B681A027B681A43BB6884
:10297C0013437A6913437B61FB687A699A6000BFE1
:10298C001C37BD4680BC704780B485B000AF786002
:10299C0039607B6893F83C30012B01D1022341E074
:1029AC007B68012283F83C207B68022283F83D205F
:1029BC007B681B685B68FB607B681B689B68BB6003
:1029CC00FB6823F07003FB603B681B68FA681343D9
:1029DC00FB607B681B68FA685A607B681B68144A4A
:1029EC00934209D07B681B68B3F1804F04D07B689D
:1029FC001B68104A93420CD1BB6823F08003BB6068
:102A0C003B685B68BA681343BB607B681B68BA6839
:102A1C009A607B68012283F83D207B68002283F852
:102A2C003C20002318461437BD4680BC704700BFBD
:102A3C00002C01400004004080B483B000AF7860EB
:102A4C0000BF0C37BD4680BC704780B483B000AF6C
:102A5C00786000BF0C37BD4680BC704770B500264F
:102A6C000C4D0D4C641BA410A64209D100F022F8A9
:102A7C0000260A4D0A4C641BA410A64205D170BD59
:102A8C0055F8043B98470136EEE755F8043B984758
:102A9C000136F2E7FC2A0008FC2A0008FC2A000890
:102AAC00002B000803460244934200D1704703F800
:102ABC00011BF9E7F8B500BFF8BC08BC9E4670478F
:0C2ACC00F8B500BFF8BC08BC9E4670477F
:102AD80000000000000000000102030406070809C6
:102AE80002030405060708090A0B0C0D0E0F101047
:042AF80001020000D7
:042AFC00310100089C
:042B00000D010008BB
:102B040001010105020305020300000001010100A7
:102B1400014F12064C24200F0004000000127A001A
:082B2400100000000100000098
:0400000508001435A6
:00000001FF
